:020000020000FC
:0200000016C127
:1000100000C0EF93FF930F93FEE3E091103E008149
:10002000E9B904B9E395EF70E093103E0F91FF91A9
:10003000EF9121E020930B0AC1D1189508ED04BF80
:1000400001E00093610001E000930A0A00E10093DF
:10005000270A03E00093000A002704B905B908E065
:100060000093110400931204009313040FE008B9E5
:1000700000E800935004009351040093520400934D
:100080005304789408950F931F932F9300EF112733
:1000900022272395F1F71395E1F70395D1F72F91D7
:0600A0001F910F9108956D
:100200006414E014C414E4304C14E2104416E038D2
:100210004614E012441CE83062146C206412C620BC
:100220004454F02066000004080C0E10120006DF93
:1002300029D070E084E090E05BD025DFBFD06ED0A5
:1002400002B1182F01FF839503FF8A957ED060309D
:1002500009F0812F172F02FFABD077D0603009F063
:10026000712F939572D0603059F09A9541D0AED0ED
:10027000F2E0E6E20027E00DF01F749184E090E0E8
:1002800037D0DBCF0F93AF93BF930027BEE3AA27EE
:100290000D93A031E9F7BF91AF910F9108950F939E
:1002A000AF93BF93EF93FF93F2E0E72FEE0F61FD63
:1002B000E395049160FD02950F70633009F40C70B2
:1002C000602F082F025040F05527003051F0660F84
:1002D00008F451600A95F9CF669500FF669508F419
:1002E0005160FF91EF91BF91AF910F9167D0089549
:1002F0000F931F936F93AF93BF93BEE3A92F002774
:100300001C91602FCCDF162B1D9303950430C4F392
:10031000BF91AF916F911F910F9108950F931F930C
:100320006F93AF93BF93BEE3A92F00271C91602F5B
:10033000B6DF609516231D9303950430BCF3BF917F
:10034000AF916F911F910F9108950F931F934F934A
:100350005F93AF93BF93BEE3A92F442711270FEFFD
:10036000A0310CF40D91612F9ADF452B0623402B11
:1003700013951430A4F3642FBF91AF915F914F9107
:100380001F910F9108950F93EF93FF93F2E0E72FE2
:10039000EE0FE39504910073672F04FD639505FD4F
:1003A0006A95003309F46350FF91EF910F9108951E
:1003B0006F93E9DF762F6F9101D008950F93039427
:1003C00007E0001609F400240F9108950F931F937E
:1003D0002F93AF93BF93BEE31FE02FE0A12F0C91AB
:1003E000A22F0C93009509F02A951150B8F7BF91F0
:0A03F000AF912F911F910F91089516
:00000001FF
