:020000020000FC
:0200000012C12B
:1000100000C0EF93FF930F93FFE3E091103F008147
:10002000E9B904B9E395EF70E093103F0F91FF91A8
:10003000EF9121E020930B0A189508ED04BF01E031
:100040000093610001E000930A0A00E10093270A8F
:1000500003E00093000A002704B905B908E0009303
:10006000110400931204009313040FE008B900E890
:1000700000935004009351040093520400935304DE
:10008000789408950F931F932F9300EE1127222742
:100090002395F1F71395E1F70395D1F72F911F9170
:0400A0000F9108951F
:1002000066000F0144466C014622C60126422321A6
:1002100007212621270344C18E0164410E23446136
:100220002E01C4410E8309DF4ED057E059D02ADF9A
:100230004090003E5090013E6090023E7090033E20
:100240008090043E9090053EA090063EA0D002B162
:1002500002FFE8D040E001FF42E003FF41E0D7D0D9
:10026000B2D0303071F04092003E5092013E609228
:10027000023E7092033E8092043E9092053EA09210
:10028000063E4090003E5090013E6090023E7090CD
:10029000033E8090043E9090053EA090063EAFD075
:1002A00092D0303071F04092003E5092013E609208
:1002B000023E7092033E8092043E9092053EA092D0
:1002C000063E45D0B4CF0F93AF93BF930027EE27E0
:1002D000BFE30D93A031E9F7BF91AF910F9108955E
:1002E0000F935093053E00270093063E0093043E73
:1002F00004D040E02CD00F9108950F931F932F93BB
:10030000EF93FF93CF93DF93F2E0E52FEE0FDEE361
:10031000C0E014E0049110FDE39510FF02950F700A
:10032000113009F40C702091043E20302CF0203064
:1003300019F0000F2A95FBCF09931A9559F7DF9111
:10034000CF91FF91EF912F911F910F9108950F93EE
:100350001F932F93AF93BF93CF93DF93BFE3A091EE
:10036000063EDEE3C0E024E01C91088140FD0695D6
:1003700041FD000F102B09931D932A95A9F7DF91DA
:10038000CF91BF91AF912F911F910F9108950F932E
:100390001F932F93AF93BF93CF93DF93BFE3A091AE
:1003A000063EDEE3C0E024E01C9109910095102395
:1003B0001D932A95C9F7DF91CF91BF91AF912F91EE
:1003C0001F910F9108950F931F932F93AF93BF9396
:1003D000CF93DF93BFE3A091063EDEE3C0E0332777
:1003E00024E01D9109911023312B2A95D1F7DF913B
:1003F000CF91BF91AF912F911F910F9108950F93BE
:100400000091063E03950093063E0F9108950F93C9
:100410000091043E40FD0A9541FD03950093043E82
:100420000F9108950F93EF93FF93F2E0E52FEE0FF6
:10043000E1600491037000FD539501FD5A95039509
:0E04400002FD53505ADFFF91EF910F91089586
:00000001FF
